:020000040800F2
:10000000980800207D020008813A0008793A00082B
:100010007D3A0008FD100008914B00080000000028
:10002000000000000000000000000000454400083F
:100030000111000800000000853A0008D5440008BE
:10004000970200089702000897020008970200082C
:10005000970200089702000897020008970200081C
:10006000970200089702000897020008970200080C
:1000700097020008970200089702000897020008FC
:1000800097020008970200089702000897020008EC
:1000900097020008970200089702000897020008DC
:1000A00097020008970200089702000897020008CC
:1000B000970200089702000800000000970200085D
:1000C00097020008000000000000000097020008EE
:1000D00000000000854B0008970200089702000806
:1000E00097020008970200080000000000000000CE
:1000F0000000000000000000000000000000000000
:1001000000000000000000000000000000000000EF
:10011000000000000000000097020008970200089D
:1001200000000000000000000000000000000000CF
:1001300000000000000000000000000000000000BF
:10014000970200089702000800000000000000006D
:10015000000000000000000000000000000000009F
:10016000000000000000000000000000000000008F
:10017000000000000000000000000000000000007F
:10018000000000009702000800F002F800F066F896
:1001900014A696E8000CB244B344DA4501D100F04D
:1001A0005DF8BAE80F000FA696E83000A5EB04054D
:1001B00004EB0607AAEB0704A7F101074FEA1515A0
:1001C0004FEA3414A4F10104AC4201D300F046F824
:1001D00013F0010F18BFFB1A43F0010300F001F800
:1001E000DBE718475464000074640000103A24BF31
:1001F00078C878C1FAD8520724BF30C830C144BF8C
:1002000004680C6070470000704700000023002461
:1002100000250026103A28BF78C1FBD8520728BF16
:1002200030C148BF0B607047662905F0A48564297A
:1002300000F0E880002070471FB505F08AFD9DE8BA
:10024000030000F0D7F900F00BFD040000200021AE
:1002500005F056FAE0601FBD10B510BD00F01EFE9F
:100260001146FFF7E9FF04F095FC00F03CFE03B4F3
:10027000FFF7F2FF03BC00F0ADFE00000948804725
:1002800009480047FEE7FEE7FEE7FEE7FEE7FEE778
:10029000FEE7FEE7FEE7FEE704480549054A064B90
:1002A00070470000E544000889010008980200201A
:1002B00098080020980400209804002070B5064695
:1002C00000F07CF9056806F10B0020F00704B44249
:1002D0009CBF002070BD2B466A68BAB11068A0426E
:1002E00010D304F1080188423CBF5068586007D31E
:1002F0005168101941601168091B01605860146051
:10030000101D70BD13465268002AE7D121462846C9
:1003100000F05CF90028DED170BD70B50446051F01
:1003200000F04CF90068002C14BF446870BD002C2C
:1003300018BFAC423CBF20466468F8D301680A1875
:10034000AA4218BF456003D12A68054611440160DE
:1003500028684119A1421CBF6C6070BD616869606A
:1003600021680844286070BD53EA020C23D010B500
:100370004C1084EA530404D54042C1F1000138BF57
:10038000491E1B4204D55242C3F1000338BF5B1E15
:1003900000F065F914F0804F04D04042C1F1000133
:1003A00038BF491E14F0004F04D05242C3F100037D
:1003B00038BF5B1E10BD13B540424FF0000070EB1C
:1003C0000104B8BF012001F0004100281CBF6FF0FC
:1003D00000414FF0FF30AFF300801CBD0FB41CB5DF
:1003E000074B06AA7B4469460090059800F01BFC69
:1003F0000020694600F02AFC1CBC5DF814FB0000DC
:10040000650800002DE9F0410646002410687529B2
:10041000314616A510D0AFF30080002802DA404222
:1004200013A507E031688A0701D512A502E0490744
:1004300004D511A5012401E0AFF3008000210A22B8
:1004400006F1240709E0B0FBF2FCB0FBF2F302FB7B
:100450001C00303078541846491C0028F3D123463C
:100460002A463046BDE8F04100F071B900000000B6
:100470002D0000002B000000200000002DE9F05F9F
:10048000894604464FF0000ADFF824B1FB44C0F867
:1004900020A02046E168884700287DD0252806D086
:1004A000D4E901219047206A401C2062F1E7002531
:1004B0005F462046E16888472028064607DB312E44
:1004C00005D2B81910F8200C08B10543F1E7A807C8
:1004D00001D525F00405C4F81CA00027C4F818A015
:1004E0002A2E09D0304605F003F938B304EB87080B
:1004F000303EC8F8186019E059F8041B204604EB98
:1005000087029161E1688847012F064618D1E069AA
:10051000002820DA25F020051DE0D8F8180000EBAF
:10052000800006EB40003038C8F818002046E1682B
:100530008847064605F0DCF80028EED1012F0AD0E6
:100540002E2E08D12046E16888477F1C0646022FE0
:1005500045F02005C4DBA069002803DA404245F0DD
:100560000105A061E80701D025F01005A6B1A6F1AC
:100570004100192802D8203645F400654A46314624
:10058000204625604D46FFF74FFE60B1012807D099
:10059000ED1D25F0070000E007E000F1080978E70D
:1005A00005F1040975E730467AE7206ABDE8F09F57
:1005B000EA580000704770477047000000487047D5
:1005C00020000020704770477047704738B50446D8
:1005D0000A4600206946AFF30080002808BF38BDF6
:1005E00002460099204600F03FFB012038BD012063
:1005F00000F04CBCF8B5AFF30080054600200C4677
:100600000C2000BF0646A819A0420DD93246694603
:100610000020AFF30080070008BF00F037FC00980F
:10062000A04218BF0546C419FFF7C8FF056007467A
:10063000F01D20F007004619284600F00AF8B442E1
:1006400008BFF8BDA21B31463868BDE8F84000F08D
:100650000BBB00210160416070470C20704753EADA
:10066000020C00F069802DE9F04B4FF00006002BE2
:100670001FBFB3FA83F503FA05F424FA05F65E40CA
:1006800012BF1643B2FA82F502FA05F4C5F120054D
:100690001EBF22FA05FC44EA0C04203556EA044C3D
:1006A0004FEA144418BF641C4FF000084FF00009D3
:1006B000904271EB030C39D3002919BFB1FA81F7CD
:1006C00001FA07F6B0FA80F700FA07F6C7F120073B
:1006D0001EBF20FA07FC46EA0C062037B6FBF4FCE6
:1006E000A7EB0507103F07F01F0BCBF120062CFAF4
:1006F00006F60CFA0BFB44BFB3460026202FA4BF1E
:100700005E464FF0000B5BEA060C08BF4FF0010B92
:1007100019EB0B0948EB0608ABFB027C06FB02CC8D
:100720000BFB03CCC01B71EB0C01C1E70B4602466F
:1007300041464846BDE8F08B13B5084318BF4FF05B
:10074000FF300146AFF30080BDE81C4070472DE943
:10075000F0470D4699469246044600F12408016888
:10076000880604D5E06921F01001216000E0012035
:10077000A84201DD471B00E00027A1697A1902EBBE
:100780000900081AA0612078C00602D42046AFF301
:100790000080002608E0D4E901211AF806009047FD
:1007A000206A401C761C20624E45F4DB2078C0068F
:1007B0000AD52046AFF3008006E0D4E901213020BD
:1007C0009047206A401C2062381EA7F10107F4DC24
:1007D00007E0D4E9012118F805009047206A401C81
:1007E0002062281EA5F10105F3DC2046AFF300804E
:1007F0002078000602D50220BDE8F0870120FBE743
:100800002DE9FF4F0C461E464FF0FF378BB0D2E963
:100810000001DDF860800A908A46C1F30A5505B9E7
:100820003D46002108464FF00000BAF1000F00F4E9
:10083000400005DA00EB80004FF4400101EA50006F
:100840004FEA9059B9F1010F00DDB9460A9850EA14
:100850004A000ED044F61050A5F2FF3545432F1440
:10086000B8F1000F1ED07542291E1EDDC9F100022D
:100870001CE0B8F1010F4FF0000001D0302103E07F
:10088000F24305E02154401CB042FBDB304600221D
:10089000002121540B99C1F80880C1E900200FB054
:1008A000BDE8F08FBD1B6D1CDEE74A4600DA6942E9
:1008B00006A800F079FA06AB93E8070003AB83E8DB
:1008C000070050460A9904F032FB8DE80700A0F5B6
:1008D00000501F3800900398002D0ADD42F21F01DE
:1008E0004A460844002303A90390684604F09CFD8F
:1008F00009E0A0F500504A461F38002303A90390E1
:10090000684604F0A6FD8DE807000004000C03D043
:100910004FF0FF30410800E01046B8F1000F03D05F
:100920000022009215461EE0751E05D400F0B6F9AF
:10093000303262556D1EF9D5B3460122084302D00C
:1009400000227F1C04E02078302801D100227F1E85
:10095000002A099784D01DE0112D07DA00F09EF9D6
:10096000303262556D1C50EA0102F5D1084302D0C5
:100970000098C8B10EE00021681E05E0235C625CAF
:1009800063542254401E491C8142F7DBAB46A81B2E
:10099000401E0990002004F80B000B98099AC0F83B
:1009A0000880C0E9002B7AE711264FF0000857E7CE
:1009B0002DE9F04F88460446D21D22F0070191B080
:1009C000D1E90001CDE90A0104F07AFE02460B9854
:1009D000C00F01D02D2007E02068810701D52B2012
:1009E00002E0202101EAC000032A099001D0072A71
:1009F00005DB03464146204600F096F90BE12078DE
:100A0000800601D5E06900E00620B8F1650F814657
:100A100006D0B8F1660F18D0B8F1670F70D131E089
:100A20000020B9F1110F009001DB112301E009F161
:100A300001030AAA01A90CA8FFF7E2FEDDE90C7088
:100A4000002609F10105834647E001204B4600904E
:100A50004FF000470AAA01A90CA8FFF7D1FEDDE973
:100A60000DB00C995D46002610B909F101000D1872
:100A7000B9EB050003D4C0F1FF3609F10105A5EB80
:100A800009002BE0B9F1010F01DA4FF00109002054
:100A9000B9F1110F0090484601DD112300E0034633
:100AA0000AAA01A90CA8FFF7ABFEDDE90C704D46C0
:100AB00000268346207800070AD4AB4500DA5D465D
:100AC00001A8012D04DD411911F8011C302907D0BE
:100AD0004F4502DA17F1040F04DA012082460FE0D5
:100AE0006D1EEEE7002F02DCED1B3E4403E0781C98
:100AF000A84200DD7D1CB81B00F1010A4FF0004741
:100B00002078000703D4AA4501DB4FF0FF3A00210B
:100B1000B7F1004F0DF143088DF8431024D00220A7
:100B20002B23002F01DA7F422D230A21021EA0F180
:100B3000010000DC5FB197FBF1FC97FBF1F201FBD8
:100B40001C7C17460CF1300C08F801CDEEE7A8F13B
:100B5000010003702188090501D5452100E06521C8
:100B6000A0F1010800F8011C09980FA9A1EB0807E2
:100B7000FF1D00B10120411901EBEA70A169384461
:100B8000081A401EA0612078C00602D42046AFF3A8
:100B90000080099828B1D4E901219047206A401CBF
:100BA00020622078C00622D52046AFF300801EE0E8
:100BB000002E04DBB34502DD01A8805D00E030209B
:100BC000D4E901219047206A401C2062761CAAF1DA
:100BD00001005FEA000A0AD100F042F8C06801682B
:100BE000405CD4E901219047206A401C2062281E05
:100BF000A5F10105DCDC07E0D4E9012118F8010BBF
:100C00009047206A401C2062381EA7F10107F3DCE0
:100C10002046AFF30080032011B041E601694A1C71
:100C200002610878704700B58FB0CDE9013100212D
:100C3000059105497944CDE9031011466846FFF74F
:100C40001DFC0FB000BD0000E5FFFFFF0A6802F8C1
:100C5000010B0A6070470000004870471800002030
:100C60000048704738000020034640688C46002842
:100C700018BF88423CBF03464068F8D31868184440
:100C8000884207D00CF1030020F00700001D411A34
:100C9000521A0146081D0A60FFF73FBB30B5B0F19C
:100CA0000A0271F100034FEA900E4EEA817EB0EB2A
:100CB0000E0061EB91014FEA101E4EEA017E10EB2F
:100CC0000E0041EB11114FEA102E4EEA016E10EBAF
:100CD0000E0041EB11214FEA104E4EEA014E10EB8F
:100CE0000E0041EB1141401841F100014FEAD000E4
:100CF00040EA41704FEAD1014FEA810444EA90741E
:100D000010EB800544EB01046D1944EB0404521B05
:100D1000A3414FF0000348BF0A3200D530BD401C4C
:100D200041F1000130BD00002DE9F0411F460446AD
:100D300003260168072A01F4006004DB08B116A548
:100D400005E016A503E008B115A500E015A521F002
:100D500010002060A069C01EA0610FB1401EA061FC
:100D60002046AFF300804FB1D4E9012138469047C7
:100D7000206A401C2062C01C206206E0206AFAE75C
:100D8000D4E9012115F8010B9047761EF8D22046D0
:100D9000AFF30080BDE8F0814E414E006E616E0001
:100DA000494E4600696E66002DE9F04781461646B9
:100DB0008AB0354878440DC88DE80D003248784433
:100DC000801C03AC0DC884E80D0041F69B3008443C
:100DD000372190FBF1F290FBF1F5A5F1800501FBC5
:100DE00012041B3C02D56442012000E00020DFF821
:100DF00098A080460027FA44AAF1BE0A0EE0E00758
:100E00000AD03246684607EB470101230AEB81010D
:100E100004F01FFB8DE8070064107F1C002CEED14E
:100E2000194F7F44AE3F19E0E80715D007EB0410D7
:100E30000DF1180A90E80E008AE80E00C068F04232
:100E400001D1981908903246012306A903A804F09D
:100E500000FB03AB83E807006D10641C002DE3D199
:100E60004FF0010332466946B8F1000F03A802D0E3
:100E700004F0DAFA01E004F0ECFAC9E90001C9F87B
:100E800008200AB0BDE8F0875050000010B500F00F
:100E900039F8BDE8104000F02FB870477546FFF7ED
:100EA000DBFEAE4605006946534620F00700854646
:100EB00018B020B5FFF7F0F9BDE820404FF000066C
:100EC0004FF000074FF000084FF0000BAC46ACE8C5
:100ED000C009ACE8C009ACE8C009ACE8C00921F021
:100EE00007018D46704710B50446AFF300802046D9
:100EF000BDE81040FFF7BBB9002801D000F06AB888
:100F00007047000010B5012805D0002103A000F0B3
:100F100067F8012010BD09A1F8E7000053494752C6
:100F2000544D454D3A204F7574206F6620686561B9
:100F300070206D656D6F7279000000003A20486581
:100F40006170206D656D6F727920636F727275705C
:100F5000746564000000000030B44FF0013C50F8AC
:100F6000042B51F8043BCCFA52F4D51A20D1FCB929
:100F700050F8042B51F8043BCCFA52F4D51A17D18F
:100F8000B4B950F8042B51F8043BCCFA52F4D51AFA
:100F90000ED16CB950F8042B51F8043BCCFA52F442
:100FA000D51A05D1002CDAD030BC4FF000007047C4
:100FB00029BAB1FA81F111F01801D1F12000844071
:100FC000F2D1CA40CB4012F0FF0213F0FF0330BC55
:100FD000D01A704701491820ABBEFEE72600020078
:100FE00070B505460C460A2000E06D1C00F011F8B3
:100FF00035B128780028F8D102E0641C00F009F827
:1010000014B120780028F8D1BDE870400A20AFF371
:10101000008008B569468DF800000320ABBE08BD0E
:1010200070B504460068826812F00C0F64D0C26884
:10103000920121D5627E012A1ED1227E012A1BD176
:101040000168490613D449F20441C0F20901043988
:1010500048D0026852065CBF02685FEA426206D46A
:10106000026852065CBF02685FEA4262EFD5402127
:1010700001600C2106E000BF602903D16021082631
:101080000EE000BF8268520706D58268920703D43B
:10109000826842F0100282600C294FF004060CD0E6
:1010A0008268120706D58268920703D4826842F0EC
:1010B000200282606C2908BF0C2601F035F92168F6
:1010C0008968314218D0054603E000BF806830428D
:1010D00012D001F029F9411B20680C29F6D3816850
:1010E0003142F3D0206C40F010002064606C40F07E
:1010F00001006064012070BD002070BDFEE70000AB
:10110000704700002DE9F04F8DB040F27808C2F230
:101110000008D8E908014FF4616200234FF46164CC
:101120004FF0000AFFF720F9D8E908214443049062
:10113000101B61EBE4713C220023FFF715F9054613
:10114000D8E90801C5EB051104EB810140F2080B59
:10115000401AC2F2000B05AF4FF478490024039007
:1011600009E000BFCDE900090A203A46CDF808A001
:1011700002F0B8FE0134072CFCD8DFE804F0132994
:1011800035435163057100BFD8F8180004F070FDB5
:1011900002460B46384644A1FFF720F9DBE9003050
:1011A0006921DFE7DBE900304FF6FF7600900A2087
:1011B000002156A20196CDF808A002F093FEDBE9CB
:1011C00000300F21CDE900060A2054A2CEE700BF6F
:1011D000039A049E384649A12B460096FFF7FEF875
:1011E000DBE900301E21BDE7D8F8080004F040FD1F
:1011F00002460B4638463CA1FFF7F0F8DBE9003029
:101200002D21AFE7D8F80C0004F032FD02460B4662
:10121000384631A1FFF7E2F8DBE900303C21A1E7D5
:1012200040F21000C2F20000006804F021FD024606
:101230000B46384624A1FFF7D1F8DBE900304B21FB
:1012400090E700BFD8F8100004F012FD02460B46EC
:10125000384619A1FFF7C2F8DBE900305A2181E7CF
:10126000D8F8140004F004FD05AC02460B460AA1B0
:101270002046FFF7B3F8DBE900304FF47841002750
:10128000CDE900010A2087212246029702F02AFEBA
:101290000DB0BDE8F08F00BF4B5768203D202530D2
:1012A0002E36662000000000456E65726779203D8D
:1012B0002025302E36662000576174616765203D19
:1012C0002025302E336620005068617365203D2054
:1012D00025302E3266200000416D70657265203D1C
:1012E0002025302E32662000566F6C7461676520B1
:1012F0003D2025302E32662000000000256420733A
:10130000202564206D2025642068000042544C2074
:1013100045453330333120210000000054696D65AC
:1013200020210000000000002DE9F04381B040F2D0
:101330007805C2F20005D5E9080140F20814013031
:1013400041F10001C5E908010020C2F20004286053
:101350006860204600F0B0FD2E68204600F0F2FBE9
:1013600030442860204600F03FFE204600F0A4FDF7
:101370002E68204600F0E6FB30442860204600F04E
:1013800033FE204600F098FD2E68204600F0DAFB80
:1013900030442860204600F027FE204600F08CFDF7
:1013A0002E68204600F0CEFB30442860204600F036
:1013B0001BFE204600F080FD2E68204600F0C2FB98
:1013C00030442860204600F00FFE204600F074FDF7
:1013D0002E68204600F0B6FB30442860204600F01E
:1013E00003FE204600F068FD2E68204600F0AAFBB0
:1013F00030442860204600F0F7FD204600F05CFDF8
:101400002E68204600F09EFB30442860204600F005
:10141000EBFD204600F050FD2E68204600F092FBC8
:1014200030442860204600F0DFFD204600F044FDF7
:101430002E68204600F086FB30442860204600F0ED
:10144000D3FD286846F26768C6F2666850FB08F06C
:10145000811040F2581401EBD070C2F200042860F1
:10146000204600F029FD6E68204600F06BFB3044FA
:101470006860204600F0B8FD40F60006C4F600069D
:1014800030464FF4005100F041FF204600F014FDBB
:101490006F68204600F056FB38446860204600F034
:1014A000A3FD30464FF4005100F030FF204600F01D
:1014B00003FD6F68204600F045FB38446860204615
:1014C00000F092FD30464FF4005100F01FFF20461F
:1014D00000F0F2FC6F68204600F034FB384468608E
:1014E000204600F081FD30464FF4005100F00EFF21
:1014F000204600F0E1FC6F68204600F023FB3844F2
:101500006860204600F070FD30464FF4005100F056
:10151000FDFE204600F0D0FC6F68204600F012FB74
:1015200038446860204600F05FFD30464FF40051BB
:1015300000F0ECFE204600F0BFFC6F68204600F093
:1015400001FB38446860204600F04EFD30464FF401
:10155000005100F0DBFE204600F0AEFC6F68204634
:1015600000F0F0FA38446860204600F03DFD304657
:101570004FF4005100F0CAFE204600F09DFC6F6859
:10158000204600F0DFFA38446860204600F02CFD69
:1015900030464FF4005100F0B9FE204600F08CFCBC
:1015A0006F68204600F0CEFA38446860204600F0AC
:1015B0001BFD30464FF4005100F0A8FE686840F271
:1015C000100950FB08F0811001EBD07068604CF6F8
:1015D000CD40C2F20009C3F64C70C9F8000028687B
:1015E00004F030FA9FED260B58EC104B2246434690
:1015F00004F040FA9FED240B53EC102B04F03AFA60
:101600009FED230B56EC107B3A46334604F0C0F8AE
:1016100004F08CF8A860686804F014FA2246434687
:1016200004F028FA9FED1C0B53EC102B04F022FA67
:101630003A46334604F0ACF804F078F8E86095EDEB
:10164000020A95ED031A99ED002A20EE010A20EE18
:10165000020A85ED040A95ED060A95ED041A30EEAE
:10166000010A85ED060A95ED060A9FED0D1A80EE3A
:10167000010A85ED050A01B0BDE8F08300BF00BF97
:101680006666666666660A40CDCCCCCCCC3C6040D3
:101690000000000000FEAF40EC51B81E85EBF53FA6
:1016A00000BA5B4AF0B5026890F83C5040F2083C42
:1016B0004FF0A043B2F1A04FC5F2000C08BFACF54B
:1016C0000273012D04BF0220F0BD95686D0737D469
:1016D0004FF6005ECFF6FF7EB2F1A04F04BF4FF68B
:1016E000006ECFF6FF7E5CF80E40640728D40C68CD
:1016F000DCF8005025F4604564B34E6890F8307013
:1017000046EA47363543CCF80050956805F00305A6
:10171000012D02D11268D20736D15CF80E2002F0FA
:101720000302012A02D11A68D2072DD1DCF8002069
:1017300040F61F7389689A431143214322E000BF9A
:10174000016C41F0200101640121002280F83C205D
:101750000846F0BDCCF80050916801F00301012962
:1017600002D11168C9070FD15CF80E1001F0030116
:10177000012902D11968C90706D1DCF8001040F62A
:101780001F729143CCF800100021002280F83C2009
:101790000846F0BD2DE9F04181B00022009290F89A
:1017A0003C20012A04D10221084601B0BDE8F081A5
:1017B0000123026880F83C3093685B0700F1A28146
:1017C0004B68042B14D803EB4303146B5B001F25F9
:1017D000D1F800809D4024EA050508FA03F32B4365
:1017E0001363936813F00C0F40F0D78043E000BF01
:1017F000092B17D803EB43036FF01D06556B06EB5F
:1018000043031F26D1F8008006FA03F4A54308FA23
:1018100003F32B435363936813F00C0F40F0BD8028
:1018200029E000BF03EB43060E2B4FEA460311D815
:10183000956B3C3B1F26D1F8008006FA03F4A543C4
:1018400008FA03F32B439363936813F00C0F40F0F3
:10185000A48010E0D56B5A3B1F26D1F8008006FA11
:1018600003F4A54308FA03F32B43D363936813F0FF
:101870000C0F40F0928008EB48031425B8F1090FD3
:1018800088BF1E3B88BF1825545907268F689E4085
:1018900024EA060607FA03F333435351D1E9043C23
:1018A000D468013B032B17D8062707EA94070CFAE4
:1018B00007FCDFE803F003313F4D00BF136E4FF22A
:1018C0000007C0F2FF373B4043EA886343EA0C035A
:1018D00043F00043136660E0136E4FEA886C03F038
:1018E000F843634542D1136E23F000431366536EF1
:1018F00003F0F84363453ED0936E03F0F84363452D
:1019000042D1936E23F000439366D36E03F0F84305
:10191000634542D13DE000BF536E4FF20007C0F275
:10192000FF373B4043EA886343EA0C0343F000433C
:10193000536632E0936E4FF20007C0F2FF373B4030
:1019400043EA886343EA0C0343F00043936624E0D0
:10195000D36E4FF20007C0F2FF373B4043EA886383
:1019600043EA0C0343F0004316E000BF536E03F05C
:10197000F8436345C0D1536E23F000435366936E22
:1019800003F0F8436345BCD0D36E03F0F8436345DE
:1019900003D1D36E23F00043D366936803F00303AF
:1019A000012B03D11368DB0740F0C480CB6801270B
:1019B000012B07FA08F31FD1D2F8B070B8F10A0F63
:1019C00043EA0703C2F8B03008EB48032ED3976907
:1019D0001B3B072689689E40B74399403943916174
:1019E00040F2083CB8F1120FC5F2000C10D1DCF83F
:1019F000001049022BE000BFD2F8B0109943C2F8A2
:101A0000B01040F2083CB8F1120FC5F2000CEED055
:101A1000B8F1110F18D0B8F1100F40F08B80DCF83E
:101A20000010090200F18680012113E05769382572
:101A30008968DE1C05FA03F327EA0303B140194362
:101A40005161002177E000BFDCF80010C9014FF0C0
:101A5000000170D493684FF0A04EB2F1A04F03F094
:101A6000030308BFACF5027E012B02D11368DB072C
:101A700048D14FF60053CFF6FF73B2F1A04F04BF29
:101A80004FF60063CFF6FF735CF8033003F00303F7
:101A9000012B03D1DEF80030DB0733D1C1B3B2F143
:101AA000A04F47D1DCF800104DF6836241F40001ED
:101AB000CCF8001040F21401C2F200010968C4F22F
:101AC0001B32A1FB0212910C01EB81014900009134
:101AD000009979B3009901390091009951B30099A7
:101AE00001390091009929B30099013900910099B9
:101AF00001B3009901390091009900294FF00001CC
:101B0000E8D118E0016C41F020010164012112E0EC
:101B1000B8F1110F08D1B2F1A04F0BD1DCF80010D1
:101B200041F0807104E000BFDCF8001041F4800156
:101B3000CCF800100021002280F83C20084601B0BB
:101B4000BDE8F0810068006C70470000B0B582B05D
:101B50000446002001904CB1206CC0060AD4206CD1
:101B6000002879D02168002529E100BF012002B0BA
:101B7000B0BD00BF0025206C00F01000401940F0FF
:101B8000308120688168490700F12B81226C40F286
:101B9000083122F481720232226483684FF0A0423D
:101BA000B0F1A04F03F00303C5F2000108BFA1F597
:101BB0000272012B02D10368DB0718D14FF60053E4
:101BC000CFF6FF73B0F1A04F04BF4FF60063CFF61E
:101BD000FF73CB5803F00303012B02D11268D20725
:101BE00005D10A68636822F440321A430A60616BC7
:101BF000627E0129D4E902154FEA423341EA050128
:101C000094F8205003F5805308BF5303012D41EA97
:101C1000030179D0A26A012A40F09180826812F013
:101C20000C0F00F09480C2684CF20703CFF6F073FB
:101C30001A401143C1602169026B012922F00F0192
:101C400002D1E269013A11430163002001216FF0E2
:101C500003026064C9E000BF002520466564C4E952
:101C6000125584F83C5000F0C7F821688868C0001D
:101C700000F1A580886800F00300012802D10868FF
:101C8000C00771D1206CC0063FF56DAF206C41F2EA
:101C9000021290430230206488684DF6836220F07F
:101CA000405088608868C4F21B3240F080508860E1
:101CB00040F21400C2F2000000680025A0FB0202FE
:101CC000900C00EB8000400001900198002876D035
:101CD000019801380190019800283FF444AF019821
:101CE00001380190019800283FF43DAF0198013878
:101CF0000190019800283FF436AF01980138019017
:101D000001980028E4D15AE072B1226C42F020021E
:101D100022F002022264626C42F001026264A26A52
:101D2000012A3FF47BAF0AE0626A0023CFF6FF731B
:101D300003EB42421143A26A012A3FF46FAFE36A08
:101D400019431143826812F00C0F7FF46CAFC26824
:101D500044F202039A43C260227E94F83030920328
:101D600042EA430211435EE7886800F00D00012853
:101D70001BD1886840F0020088600320086000F0F2
:101D8000D3FA21688A68D2073FF47CAF054603E0A6
:101D90008868C0073FF476AF00F0C6FA401B2168A0
:101DA0000328F5D38868C007F2D0206C012540F0E5
:101DB00010002064606C40F001006064206C886852
:101DC000C00003D5886880007FF5D5AE206C40F058
:101DD000100020F002002064606C40F0010060649C
:101DE000206C012010216FF01202236C1A40114365
:101DF000216402B0B0BD000080B586B0006840F23A
:101E00000011C5F2000188424FF000010591CDE9B3
:101E10000311CDE9011123D0B0F1A04F49D140F217
:101E20000411C2F200010A6841F21400C4F2020077
:101E3000531C0B6042B9016841F080510160016898
:101E400001F0805100910099016841F40031016076
:101E5000006800F400300090009804201FE000BFEC
:101E600040F20411C2F200010A6841F21400C4F207
:101E70000200531C0B6042B9016841F080510160BF
:101E8000016801F0805100910099016841F400312E
:101E90000160006800F4003000900098102001906C
:101EA000032002900020039001A94FF0904000F021
:101EB0004FF906B080BD0000B0B5016804468868DF
:101EC000400703D494F83C00012801D10220B0BDA2
:101ED000012084F83C00886800F00300012802D14A
:101EE0000868C0072CD188683F22C8F2000210425F
:101EF0000CD0206C40F010002064606C40F00100B9
:101F00006064002084F83C000120B0BD886840F087
:101F10000100886000F008FA21680A68D2070FD132
:101F2000054602E00868C0070AD100F0FDF9401B31
:101F300021680328F6D30868C007F3D1D9E700BFAA
:101F4000226C40F601739A4340F2083002F5807229
:101F5000C5F2000022640368226CDB0618BFB1F1F1
:101F6000A04F07D122F480122264CA6892010FD4D4
:101F700013E000BFA0F5027342F48012994222647C
:101F80000BD14FF60452CFF6FF728258920104D55E
:101F9000226C012363F30D322264236C0022DB04E4
:101FA0004FF0000344BF636C23F00603636484F8BE
:101FB0003C201C220A600268D2060ED0026802F0A1
:101FC0001F02052A09D00068B1F1A04F05D000F02A
:101FD0001F0009281CBF0020B0BD886840F0040025
:101FE00088600020B0BD0000B0B5044690F83C0009
:101FF000012804BF0220B0BD012520466C2184F8D1
:102000003C50FFF70DF828B1002084F83C0028462A
:10201000B0BD00BF2068816801F00301012913D120
:102020000168C90710D0816801F00D01012929D18B
:10203000816841F0020181600321016000F074F9C0
:1020400021688968C9070FD1204650F8401F41F226
:1020500001129143002541F001010160002084F844
:102060003C002846B0BD00BF054602E08068C007BE
:10207000EAD000F059F9411B20680329F6D38168A2
:10208000C907F3D0206C012540F0100020642046E1
:1020900050F8441FDFE70000014690F821000228B5
:1020A00016D10868D1E90FC3026822F00E0202605F
:1020B000026822F001020260012000FA03F2CCF86B
:1020C000042081F821000020002281F820207047A0
:1020D000042088630120002281F82020704700003E
:1020E00090F8211002291BD180B50268416BD0E91C
:1020F0000FCE1368002923F00E031360136823F03A
:10210000010313604FF0010202FA0EF2CCF8042032
:102110004FF48072028418BF8847002080BD00BF42
:102120000421816301207047B0B5044600F0FCF83B
:10213000054640F20000C2F200000078611C18BFA2
:10214000044400BF00F0F0F8401BA042FAD3B0BD39
:102150002DE9F04F82B00F68002F00F0D38040F2DD
:10216000004C40F60042C4F2010CC4F60002052304
:10217000002400264FF0000A904208BF032300937A
:1021800044E000BF012204F00C050F27AF402EEA07
:102190000707AA404FEA9A033A4349F82320DCF89C
:1021A00008204B6842EA080740F20C4EDD0258BF97
:1021B00022EA0807CCF80870C4F2010EDEF800200D
:1021C0009D0242EA080758BF22EA0807CEF80070CD
:1021D000DCF804209D0342EA080758BF22EA0807FA
:1021E000CCF80470DCF80020DB0342EA080758BF93
:1021F00022EA0807CCF800700F680AF1010A37FAE2
:102200000AF206F1020604F104047BD0012202FA6C
:102210000AF517EA0508EFD0D1F804E003230EF021
:10222000030BABF1010203FA06F7012A6FEA070973
:1022300010D88268CF6802EA0902B7403A43826048
:102240004268AA43CEF3001505FA0AF52A43426014
:1022500006E000BFBBF1030F02D14FF0030B1EE0FD
:10226000C2688D6802EA0902B5402A43BBF1020F39
:10227000C26014D16FF0030202EA5A020244D2F89B
:1022800020E004F01C050F230F69AB402EEA030386
:10229000AF403B431362D1F804E00EF0030B026839
:1022A0000BFA06F302EA09021A431EF4403F0260E9
:1022B000A2D041F21803C4F202031A68ACF57E7989
:1022C00042F001021A601A68B0F1904F02F0010268
:1022D0000192019A2AF0030259F802E010D040F26C
:1022E0000042C4F6000290423FF44CAF40F60002B8
:1022F000C4F600029042009A08BF022243E700BFE2
:10230000002240E702B0BDE8F08F0000426902EA17
:102310000103914341EA0341816170471823002A78
:1023200008BF2823C150704740F29420C2F2000039
:102330000068704740F2000040F29421C2F20000B1
:10234000C2F2000100780A6810440860704700007B
:1023500080B542F20000C4F20200016841F01001B1
:102360000160032000F084F80F2000F005F800F071
:1023700027F8002080BD000070B540F20006C2F2D0
:10238000000640F214013278C2F200014FF47A7371
:102390000968B3FBF2F20446B1FBF2F1084600F023
:1023A000CBFD0F2C4FF0010508D838B94FF0FF30A6
:1023B00021460022002500F02FF87460284670BDE9
:1023C00082B041F21800C4F20200016841F001013C
:1023D0000160016801F0010101910199416841F03A
:1023E00080514160406800F080500090009802B039
:1023F00070470000002848BF704700F01F0101220D
:1024000002FA01F11C2202EAD0004EF20012CEF2D2
:10241000000281507047000010B54EF60C5CCEF201
:10242000000CDCF80030C3F3022E8EF00704042CFD
:1024300028BF0424BEF103034FF0FF3E0EFA04F45C
:1024400038BF0023A14399400EFA03F39A43114386
:1024500000F00F0200F160430901043A03F5644300
:102460006244002848BF02F10C03197010BD00003F
:102470004EF60C51CEF200010A684FF6FF031A40E7
:1024800060F30A2242F0806040F0FD7008607047FF
:102490002DE9F04182B00446807841F21C06C00765
:1024A000C4F202064AD030685FEAC00808D4306837
:1024B00040F080503060306800F08050019001980A
:1024C00047F20007C4F200073868C00512D4386824
:1024D00040F480703860FFF727FF05463868C00574
:1024E00008D4FFF721FF401B6428F7D9032002B06E
:1024F000BDE8F081706810F4407012D0616801F49A
:10250000407188420DD0706840F24042C4F24222CD
:10251000012320F4407113600023C0071360716031
:102520003AD17068616820F440700843B8F1000F38
:10253000706003D4306820F0805030602068C1079C
:1025400010D1810616D401061CD4C00405D57069CB
:10255000616920F4807008437061002002B0BDE81A
:10256000F08100BF7169A26821F00301114371611C
:102570008106E8D57169E26821F0100111437161AB
:102580000106E2D53169226921F4F8711143316104
:10259000C004DCD4E1E700BFFFF7C6FE054641F208
:1025A000883700BF70688007BBD4FFF7BDFE401BB3
:1025B000B8424FF00300F5D9D0E70000002804BF6F
:1025C000012070472DE9F04381B042F20008C4F2C7
:1025D00002080446D8F800000D4600F007008842C3
:1025E0000CD2D8F8000020F007002843C8F80000FB
:1025F000D8F8000000F00700A8425ED1206841F240
:1026000004098107C4F2020907D5D9F80010A268AD
:1026100021F0F0011143C9F80010C00744D1D8F8E7
:10262000000000F00700A8420CD9D8F8000020F004
:1026300007002843C8F80000D8F8000000F00700A1
:10264000A8423AD12068410707D5D9F80010E268BE
:1026500021F4E0611143C9F80010000708D5D9F84A
:102660000000216920F4605040EAC100C9F8000070
:10267000D9F8002002F00C00082841F20020C0F236
:102680007A0051D146F2A453C2F38341C0F600034D
:10269000595CD9F82830D2033CD440F60010C0F27F
:1026A0003D00484340E000BF606802280AD001288E
:1026B0002AD159F8041C890308D4012001B0BDE8CF
:1026C000F08300BF59F8041C8901F6D5D9F8001031
:1026D00021F003010843C9F80000FFF725FE064674
:1026E00041F28837D9F80000616800F00C00B0EBC7
:1026F000810F94D0FFF718FE801BB842F2D9032057
:1027000001B0BDE8F08300BF59F8041C8907D4D597
:10271000DCE700BF03F00F0246F2B453C0F600033B
:102720009A5CB0FBF2F04843D9F8001045F62062FD
:10273000C1F30311C0F60002515C40F2140220FA0A
:1027400001F140F20400C2F200000068C2F200028F
:102750001160FFF711FE002001B0BDE8F08300001A
:1027600040F2140041F20401C2F20000C4F202017E
:102770000068096845F63062C1F30221C0F6000224
:10278000515CC8407047000041F2040CC4F2020CD6
:10279000DCF8003003F00C00082841F20020C0F201
:1027A0007A0018BF704746F2A451C3F38342C0F6C3
:1027B00000018A5CDCF82810DB0305D440F6001029
:1027C000C0F23D005043704746F2B45301F00F0190
:1027D000C0F60003595CB0FBF1F0504370470000B5
:1027E000002804BF012070472DE9F04182B0044663
:1027F000007841F20006C007C4F202060CD07068EF
:1028000000F00C00042840F07F803068800303D57E
:102810006068002800F03481207880071BD570683C
:1028200010F00C0F09D0706800F00C00082840F080
:102830009F807068C00300F19B803068800703D5DB
:102840002069012840F01C813068616920F0F8009F
:1028500040EAC10030602078000713D42078400798
:102860002AD4E569002D00F00681706800F00C00A4
:10287000082840F0C180012D40F0F280012002B014
:10288000BDE8F081A069002800F09E800020C4F21D
:1028900042200121C0F88014FFF746FD054600BF25
:1028A000706A8007DAD4FFF73FFD401B0228F7D992
:1028B000032002B0BDE8F081F0695FEAC00808D4E7
:1028C000F06940F08050F061F06900F080500190B4
:1028D000019847F20007C4F200073868C00561D4C8
:1028E000386840F480703860FFF71EFD054600BF71
:1028F0003868C00556D4FFF717FD401B6428F7D988
:10290000032002B0BDE8F081706800F00C000828D8
:1029100003D17068C0033FF578AF6068B0F5A02FB1
:1029200000F0F080B0F5803F00F0F080002840F02B
:10293000F180306820F480303060306820F48020EE
:102940003060F06AA16820F00F000843F062FFF7E2
:10295000EBFC0546306880037FF55EAFFFF7E4FCD3
:10296000401B64284FF00300F4D902B0BDE8F081A9
:102970002069002840F20000C4F242205ED001210C
:102980000160FFF7D1FC0546306880073FF55CAF7A
:10299000FFF7CAFC401B0228F6D9032002B0BDE8AD
:1029A000F08100BFE06800286ED0052800F0868026
:1029B000012800F08780306A20F001003062306A20
:1029C00020F0040081E000BF0020C4F2422000217A
:1029D000C0F88014FFF7A8FC054600BF706A8007A6
:1029E0007FF53CAFFFF7A0FC401B0228F6D903207F
:1029F00002B0BDE8F08100BF0027C4F242270020EA
:102A00003866FFF791FC022D05460BD13068800136
:102A100040F1A080FFF788FC401B02284FF0030024
:102A2000F4D9A2E73068800125D5FFF77DFC401B73
:102A300002284FF00300F5D997E700BF002101609D
:102A4000FFF772FC054600BF306880077FF503AFD3
:102A5000FFF76AFC401B02284FF00300F4D984E71B
:102A60007068216A00F480328A4209D1616A00F4F8
:102A70007010884204D1002002B0BDE8F08100BF90
:102A8000012002B0BDE8F081306A20F00100306220
:102A9000306A20F004003062FFF746FC054641F240
:102AA000883700BF306A800722D5FFF73DFC401B06
:102AB000B8424FF00300F5D957E700BF306A40F045
:102AC00004003062306A40F001003062FFF72CFCF5
:102AD000054641F2883700BF306A800708D4FFF707
:102AE00023FC401BB842F7D9032002B0BDE8F081B7
:102AF000B8F1000F3FF5B5AEF06920F08050F061FD
:102B0000AFE600BF306840F480203060306840F4A9
:102B1000803006E0306820F480303060306820F487
:102B200080203060F06AA16820F00F000843F06256
:102B3000FFF7FAFB054600BF306880033FF56CAE37
:102B4000FFF7F2FB401B6428F6D9032002B0BDE872
:102B5000F08100BF7068D4E9081220F474101043AB
:102B60000843706001203866FFF7DEFB044600BFB3
:102B7000306880013FF57FAFFFF7D6FB001B0228CE
:102B80004FF00300F4D9F0E6002804BF012070479D
:102B9000B0B50446406A28B10020206104F1140059
:102BA00006E000BF6068B0F5827F03D004F11C002E
:102BB000002101600025A56294F85D0020B920463F
:102BC00084F85C5000F04EF8022084F85D00206824
:102BD000D4F80CE00268BEF5E06F22F0400202601B
:102BE0004EF4006298BF0125B2F5706F1CBF002340
:102BF000A3624FEA053CD4E90135D4E9042103F48A
:102C0000827305F404452B4402F002021A44A369BE
:102C100001F00101E569114403F40072114405F06B
:102C20003802256A114405F08002A56A114405F4B2
:102C30000052114301600421626A0EF4706501EADA
:102C40001341636B45EA0C0502F01002294303F0BF
:102C5000080311431943416000200121206684F8D4
:102C60005D10B0BD006843F20001C4F2010188426A
:102C700018BF704780B586B041F21400C4F202005C
:102C8000416841F480514160416801F480510191F3
:102C90000199016841F480210160006801A900F4F4
:102CA00080200190019828200190022002900020AD
:102CB0000390032004900520059040F20040C4F6E4
:102CC0000000FFF745FA06B0BDE8804070470000FD
:102CD0002DE9F04182B0044690F85C00012803D150
:102CE000022002B0BDE8F08101201D4616460F46C5
:102CF00084F85C00FFF718FB94F85D1001290DD1F2
:102D00008046002F4FF0010018BF002E0ED1002189
:102D100084F85C1002B0BDE8F08100BF0220002101
:102D200084F85C1002B0BDE8F08100BF03200021F0
:102D300084F85D002166A763A687E6872164A4F86E
:102D40004410A4F84610A068E164B0F5004F206874
:102D5000216507D1016821F040010160016841F45B
:102D6000804101600168490603D4016841F04001D7
:102D700001606168731EE268B1FA81F1B3FA83F30E
:102D800049095B09B2F5E06F41EA03013CD931B171
:102D900037F8021BC160A763E08F0138E087E08F3E
:102DA00000286FD0681C0CD11DE000BFA16B31F86A
:102DB000022BC260A163E08F0138E087E08F00281A
:102DC00060D0206881688907F0D4FFF7ADFAA0EBE6
:102DD0000800A842F2D30320A5E000BFFFF7A4FA41
:102DE000E08F00284ED0206881688907F6D5A16B56
:102DF00031F8022BC260A163E08F0138E087E08FD9
:102E00000028F0D13EE000BF89B1E18F02294FF6E2
:102E1000FE7103D337F8022BC26004E03A78013127
:102E20000273A06B471CA763E08F0844E087E08F24
:102E300040B3681C5BD04FF6FE70461C08E000BF34
:102E4000FFF772FAA0EB0800A842C4D2E08FC8B125
:102E5000216888688007F3D5E28FA06B022A05D32A
:102E600030F8022BCA604FF6FE7104E00078087358
:102E7000A06B31460130A063E08F0844E087E08F0B
:102E80000028E5D120464FF4C0512A46434600F0C1
:102E9000F7FE68B920462946424600F0B1FF38B92E
:102EA00020464FF4C0612A46434600F0E9FE28B1AF
:102EB000206E40F02000206620202066A06838B9EF
:102EC000002001902068C1680191806801900198FC
:102ED000206E38B30120002184F85C1002B0BDE8F8
:102EE000F08100BFFFF720FAE08F0028CAD02068E9
:102EF00081688907F6D5E28FA16B012A08D931F8DC
:102F0000022BC260A163E08F0238E087ECE700BFCC
:102F100009780173A06B0130A063E08F0138E0876E
:102F2000E2E700BF0020012184F85D10002184F851
:102F30005C1002B0BDE8F081411E0020B0EB116FC3
:102F40001CBF012070474EF21002CEF20002516009
:102F50004EF62351CEF20001F0230B700721906052
:102F60001160704790F83C20012A4FF002023AD0DD
:102F700010B580F83D20026842F6004C5368D2F844
:102F800008E0C4F2010C624503D14C6823F47003DD
:102F900023430C6823F07003234342F6FF34C4F24A
:102FA0000104A242536009DCB2F1804F0ED040F21E
:102FB0000043C4F200039A4208D00CE044F200033C
:102FC000C4F201039A4201D0624504D189682EF00F
:102FD0008003194391600121002280F83D1080F8A0
:102FE0003C20BDE8104010467047000090F83C308F
:102FF000012B04BF022070474FEAB202032A23D8F4
:10300000F0B5DFE802F00327456500BF0368D1E9AA
:1030100000C5D1F80CE01A6A42F6FF3722F001022F
:103020001A621A4652F8186F1C6AC4F20107BB42B2
:1030300074DCB3F1804F00F07D8040F20047C4F2B1
:103040000007BB4276D091E00121002280F83C20AD
:10305000084670470368D1E900E6D1E902C11A6A5F
:10306000360222F010021A621A4652F8184F4FF236
:10307000FF071D6ABE4324F4734461F30F3646EA2A
:10308000040125F0A0040EF00A0744EA07173CE00B
:103090000768D1E900C5D1E902313A6A61F3071541
:1030A00022F480723A623A4652F81C4F3E6A24F08B
:1030B000F30445EA040126F420660CF00A0546EA0A
:1030C000052611603E62116821F00C01116042E09A
:1030D0000368D1E900E6D1E902C11A6A360222F496
:1030E00080521A621A4652F81C4F4FF2FF071D6AAF
:1030F000BE4324F4734461F30F3646EA040125F419
:1031000020440EF00A0744EA073711601F62116875
:103110004FEA0C2321F4406111601CE044F20007E7
:10312000C4F20107BB4205D042F60047C4F20107D2
:10313000BB421BD126F00306354324F00A070CF0EE
:103140000A066EF3071537449D611F629F6927F0D9
:103150000C079F618B681168194311600021BDE85D
:10316000F040002280F83C200846704746F00105F8
:10317000E3E70000002804BF0120704710B50446B3
:1031800090F83D0028B9002084F83C00204600F06B
:103190007DF8022084F83D0020680168B0F1804F7E
:1031A0000BD042F60042C4F20102904205D040F238
:1031B0000042C4F20002904203D1A26821F07001E3
:1031C000114343F6FF72C4F20102904210DCB0F1E9
:1031D000804F1FD040F20042C4F20002904219D04A
:1031E00042F60042C4F20102904213D016E000BF42
:1031F00044F20002C4F2010290420BD044F60002F5
:10320000C4F20102904205D044F20042C4F201022D
:10321000904203D1226921F440711143A36921F046
:103220008001E2681943D4F804C00160A0F1804134
:10323000C262A1F59631820542EA91210729C0F8C0
:1032400028C007D8012202FA01F111F0E10F1CBFDA
:103250006169016301214161002084F8481084F80C
:103260003E1084F83F1084F8401084F8411084F830
:10327000421084F8431084F8441084F8451084F810
:10328000461084F8471084F83D1010BD006840F2E5
:103290000041C4F20001884218BF704780B586B073
:1032A00041F21400C4F20200816841F00201816021
:1032B000816801F0020101910199016841F48021C6
:1032C00001600068002100F4802001900198012035
:1032D000019002200290059040F20040CDE90311D8
:1032E000C4F6000001A9FEF733FF06B0BDE8804038
:1032F00070470000704700007047000070470000F2
:1033000070B501680446C8690E6840F62F028B68E4
:103310000240202A06F0200E08D1BEF1000F05D091
:10332000A16E49B32046BDE87040084740F60F0241
:10333000104209D040F22012C0F2004203F0010C0A
:10334000324012EB0C0229D1226EC50616D5012A95
:1033500014D116F0100211D01020086288684006BF
:1033600026D4B4F85800B4F85A10B4F85A20002AF9
:1033700018BF884240F0308270BD00BFC20240F1E9
:10338000D18013F4800200F0CD804FF480122046EB
:103390000A62BDE87040FFF7AFBF00BFC20718BFA9
:1033A00016F4807240F0CA80820700F1D180DAE022
:1033B000606F016849688AB2002ADDD0B4F85830DD
:1033C0009A42D9D2A4F85A108069202800F09C8033
:1033D000206850E8000F216820F4807041E8000266
:1033E000DAB1206850E8000F216820F4807041E8CD
:1033F000000292B1206850E8000F216820F480702C
:1034000041E800024AB1206850E8000F216820F42A
:10341000807041E80002002ADAD1206850E8020FEB
:10342000216820F0010041E80202DAB1206850E88A
:10343000020F216820F0010041E8020292B12068E9
:1034400050E8020F216820F0010041E802024AB171
:10345000206850E8020F216820F0010041E80202D4
:10346000002ADAD1206850E8020F216820F04000DD
:1034700041E80202DAB1206850E8020F216820F02A
:10348000400041E8020292B1206850E8020F216832
:1034900020F0400041E802024AB1206850E8020FE3
:1034A000216820F0400041E80202002ADAD1202001
:1034B000C4F8800000202066206850E8000F2168D2
:1034C00020F0100041E80002DAB1206850E8000F57
:1034D000216820F0100041E8000292B1206850E815
:1034E000000F216820F0100041E800024AB1206876
:1034F00050E8000F216820F0100041E80002002A87
:10350000DAD1606FFEF7C8FD02206066B4F858009B
:10351000B4F85A10401A81B22046BDE87040FFF757
:10352000E9BE00BF010640F11B8116F0800100F0EA
:103530001781E16E00297FF4F5AE1DE701220A62D2
:10354000D4F8842042F00102C4F8842082070AD50E
:10355000BCF1000F07D002220A62D4F8842042F0A6
:103560000402C4F8842042070AD5BCF1000F07D03A
:1035700004220A62D4F8842042F00202C4F88420B3
:1035800002070AD55CEA0E0207D008220A62D4F8C4
:10359000842042F00802C4F8842002050BD516F0FE
:1035A000806208D04FF400620A62D4F8842042F0AE
:1035B0002002C4F88420D4F88420002A3FF4DCAE32
:1035C000800607D5BEF1000F04D0A26E12B12046CE
:1035D00090472168D4F88400896800F0280001F041
:1035E0004001401806D12046FFF788FE0020C4F8AD
:1035F000840070BD206850E8000F216820F49070AE
:1036000041E80002BAB3206850E8000F216820F4B6
:10361000907041E8000272B3206850E8000F216802
:1036200020F4907041E800022AB3206850E8000FAF
:10363000216820F4907041E80002002ADAD11AE0F3
:10364000206850E8020F216820F0010041E80202E2
:10365000DAB1206850E8020F216820F0010041E84B
:10366000020292B1206850E8020F216820F00100A8
:1036700041E802024AB1206850E8020F216820F0B8
:10368000010041E80202002ADAD1206E012824D18B
:10369000206850E8000F216820F0100041E8000287
:1036A000DAB1206850E8000F216820F0100041E8EE
:1036B000000292B1206850E8000F216820F010004D
:1036C00041E800024AB1206850E8000F216820F06C
:1036D000100041E80002002ADAD12020C4F880005E
:1036E000002020662168A066886840066ED500BF6D
:1036F000206850E8020F216820F0400041E80202F3
:10370000DAB1206850E8020F216820F0400041E85B
:10371000020292B1206850E8020F216820F04000B8
:1037200041E802024AB1206850E8020F216820F007
:10373000400041E80202002ADAD1606F002845D03B
:1037400044F24D71C0F600014163FEF7C9FC002848
:103750003FF412AE606F416BBDE87040084700BF98
:1037600040067FF509AE16F0400008BF70BD00BFEF
:10377000206850E8000F216820F0400041E8000276
:10378000DAB1206850E8000F216820F0400041E8DD
:10379000000292B1206850E8000F216820F040003C
:1037A00041E800024AB1206850E8000F216820F08B
:1037B000400041E80002002ADAD120200021E06721
:1037C0002046E166BDE8704000F054B92046BDE8EF
:1037D0007040FFF793BD00BF401A00BF216851E859
:1037E000001F226821F4907142E80013BBB32168E6
:1037F00051E8001F226821F4907142E8001373B36E
:10380000216851E8001F226821F4907142E80013FA
:103810002BB3216851E8001F226821F4907142E81F
:103820000013002BDAD11AE0216851E8021F226848
:1038300021F0010142E80213DBB1216851E8021FC7
:10384000226821F0010142E8021393B1216851E896
:10385000021F226821F0010142E802134BB12168E6
:1038600051E8021F226821F0010142E80213002BF7
:10387000DAD12021C4F8801000212166A16600BFA2
:10388000216851E8001F226821F0100142E800136E
:10389000DBB1216851E8001F226821F0100142E8E5
:1038A000001393B1216851E8001F226821F0100134
:1038B00042E800134BB1216851E8001F226821F053
:1038C000100142E80013002BDAD1022281B2204617
:1038D0006266BDE87040FFF70DBD000010B598B1FD
:1038E0000446C06F28B9002084F87800204600F014
:1038F00025F82420E0672068016821F001010160BB
:10390000204600F02BFF08B1012010BD606A10B105
:10391000204600F0F1FD2168486820F4904048609E
:10392000886820F02A008860086840F0010220467C
:103930000A60BDE8104000F055BE0000006843F684
:103940000001C4F20101884218BF704780B586B0FB
:1039500041F21400C4F20200416841F48041416028
:10396000416801F4804101910199016841F40031FD
:103970000160006801A900F40030019001984FF443
:10398000C060019002200290002003900320049068
:10399000072005904FF09040FEF7DAFB252001212B
:1039A0000022FEF739FD2520FEF724FD06B0BDE814
:1039B000804070472DE9F04182B00446C06F202856
:1039C0001ED10D4600294FF001004AD01746002AAB
:1039D00047D00020C4F8840021209846E067FEF715
:1039E000A3FCA4F85070A4F85270A1680746B1F582
:1039F000805F01D1206938B12E46002511E000BF5B
:103A0000022002B0BDE8F08100260AE035F8021B72
:103A100000266FF35F210185B4F852000138A4F845
:103A20005200B4F8520078B12046802100223B4673
:103A3000CDF8008000F040FFB0B92068002EE5D03E
:103A400016F8011BE7E700BF2046402100223B4655
:103A5000CDF8008000F030FF2021E167002818BF7A
:103A6000032002B0BDE8F0812020E067032002B00F
:103A7000BDE8F08170470000FEE70000FEE70000AF
:103A8000FEE70000704700002DE9F04140F2EC082D
:103A9000C2F20008B8F80430152B05D30120A8F8AD
:103AA00008000020BDE8F08104464CF6CD40CCF67D
:103AB000CC40B8F80650A1FB0017A2FB0001681C1F
:103AC000A8F806001420CE08FCF7F8FBB8F802109E
:103AD000D8F80CC001EBD7010022BCF1000FC0E9FF
:103AE000004186608581026120D0002564466268BD
:103AF00053198B4228D82269E2B15768FD188D42CC
:103B000020D8146964B1626853198B421CD82269A9
:103B100082B15768FD188D4214D81469002CE6D183
:103B2000491B10614160BDE8F08100BFC8F80C007E
:103B3000BDE8F08122461D46491B10614160BDE889
:103B4000F08100BF1D461446644518BFBDE8F081F2
:103B5000491B4160DCF80420C0F810C0511AC8F8B5
:103B60000C00CCF80410BDE8F081000070B540F204
:103B7000EC06C2F20006F46894B3606800284FF0C7
:103B8000000018BF70BD2169A268F1602061206843
:103B900062608047A068A189318018B3D6F80CC054
:103BA000BCF1000F24D06068002561464A682A44B1
:103BB00082422BD80B69FBB159688D18854223D8F6
:103BC0001969D9B14A682A4482421FD80B699BB14E
:103BD00059688D18854217D819690029E6D10DE07A
:103BE000002070BD2046FCF798FB012070BD00BF8F
:103BF000F460012070BD00BF0B461546401B1C61E0
:103C00006060012070BD00BF154619466145ECD1CA
:103C1000401B6060DCF80410C4F810C0081AF4609F
:103C2000CCF80400012070BD40F2EC00C2F20000AC
:103C30000021C160C0F802100121C0F806107047D1
:103C400040F2EC00C2F20000C16889B143884A68C2
:103C50000133002A438008BF70479BB2D31A5A42EF
:103C6000B3F1FF3FD4BF002300224B604280704776
:103C700082884188002A18BF4A1C42807047000091
:103C80002DE9F04782B000261F4690460D4681463A
:103C90008DF80360FEF748FB381A00EB0807FEF7C3
:103CA00043FB40F21401C2F2000109682322514390
:103CB000090DD9F8004079430191A168294235D016
:103CC000824618F1010035D0B5F5C06F1AD100BF9A
:103CD000207B8DF803009DF80300FEF725FBA0EB89
:103CE0000A00B8425ED2019801990028A1F10101B1
:103CF0000191D9F80010896808BF074611F4C06F18
:103D0000E6D112E0FEF710FBA0EB0A00B84249D260
:103D1000019801990028A1F101010191D9F8001041
:103D2000896808BF07462942ECD10026304602B018
:103D3000BDE8F0870026B5F5C06F25D1207B8DF852
:103D400003009DF80300A06810F4C06FEDD0207B45
:103D50008DF803009DF80300A06810F4C06FE4D054
:103D6000207B8DF803009DF80300A06810F4C06F5D
:103D7000DBD0207B8DF803009DF80300A06810F4D1
:103D8000C06FDBD1D2E700BFA0682842CDD0A068C9
:103D90002842CAD0A0682842C7D0A0682842F3D1E0
:103DA000C4E700BFD9E900014268B1F5827F22F083
:103DB000E00242600BD1D9F80810B1F5004F02D0F3
:103DC000B1F5806F03D1016821F040010160D9F89D
:103DD0002810B1F5005F07D1016821F4005101609E
:103DE000016841F400510160012089F85D00002064
:103DF00089F85C000326304602B0BDE8F087000079
:103E0000F0B581B015460E460446FEF78DFA281A25
:103E10008719FEF789FA40F21401C2F2000109681D
:103E2000C1F3CB317943009121688A68120622D50B
:103E30000546701C15D000BFFEF776FA401BB8424D
:103E40001CD2009800990028A1F10101009121687D
:103E5000896808BF07460806EED40CE088680006AB
:103E600009D58868000606D58868000644BF8868BA
:103E70005FEA0060F2D4002001B0F0BDD4E9000197
:103E80004268B1F5827F22F0E00242600AD1A16867
:103E9000B1F5004F02D0B1F5806F03D1016821F078
:103EA00040010160A16AB1F5005F07D1016821F40A
:103EB00000510160016841F400510160012084F863
:103EC0005D00002084F85C00032001B0F0BD00001C
:103ED00040F20040C4F600004FF400410122FEF71A
:103EE0001DBA00002DE9F04F89B0054640F20040B0
:103EF00016468A46C4F60000402100220593FEF7CC
:103F00000DFA3378002B00F00D8105992C46080A34
:103F10000490C1F3072000285FFA81F9079000F0B0
:103F20009380B9F1000F00F0C780DDE9131040F273
:103F3000FC0240F2A8154FEA11284FEA102BC2F2FA
:103F40000002C2F200050DF122070DE0029CDDF82F
:103F50000CA0019E40F2FC024C44C2F2000216F892
:103F6000013F002B00F0DE80107819FA84F1002860
:103F70004FF0800018BFA020814210D3079990789D
:103F80008A4411FA8AF100284FF0A00018BF80205F
:103F9000814280F0C780202B4FF00004DFD00599CC
:103FA000049A1FFA8AF0214410440139013806931B
:103FB000CAB2C3B2E0B25FFA8AF101960294CDF8B8
:103FC0000CA000F0B9F9069807992038484300265C
:103FD000069003E0079801368642B7D006981299FA
:103FE000304431F810404FF0000A18E014984FF4B4
:103FF00000518DF8210040F20040C4F6000001227B
:104000008DF820B0FEF78AF9284608A902224FF061
:10401000FF33FEF75DFE0AF1010AD145DAD004FA5A
:104020000AF00004E2D513984FF400518DF82300F4
:1040300040F20040C4F6000001228DF82280FEF715
:104040006DF928463946E1E740F2FC05C2F2000569
:104050002878013615E000BF1FFA8AF10598049A06
:104060002044114401380139C2B2CBB2E0B25FFA48
:104070008AF100F061F928784C4416F8013B002BD6
:1040800050D0C20719FA84F14FF0800218BFA02265
:104090009142E1D30799AA788A441FFA8AF1002A4B
:1040A0004FF0A00218BF80228A423BD9202B4FF04C
:1040B0000004D3D1E1E700BF40F2FC05C2F20005E5
:1040C0002878013614E000BF0599049A1FFA8AF097
:1040D0002144104401390138CAB2C3B2E0B25FFAD8
:1040E0008AF100F029F928784C4416F8013BCBB14D
:1040F000C207A1B24FF0800218BFA0228A42E3D8C3
:10410000079AA978924412FA8AF200294FF0A00186
:1041100018BF80218A4205D2202B4FF00004D3D152
:10412000E3E700BF40F20040C4F600004021012256
:10413000FEF7F4F809B0BDE8F08F00002DE9F04774
:1041400082B00478002C3FD040F2004940F2A81A17
:10415000C4F60009451CC2F2000A0DF1070802E08E
:10416000013C200630D015F8020B4FF400518DF8B9
:10417000070048460022FEF7D1F85046414601228A
:104180004FF0FF33FEF7A4FD15F8016C16F07F0722
:104190000DD048464FF400510122FEF7BFF85046BB
:1041A00029463A464FF0FF33FEF792FD3D4470B288
:1041B000B0F1FF3FD4DC15F8010BFF2808BF4FF426
:1041C000FA70FDF7B1FFCBE702B0BDE8F087000061
:1041D0002DE9F04782B0924640F2FC02C2F20002A2
:1041E0001C46137807468020002B18BFA020B84239
:1041F00050D992780E46A021002A18BF8021B142E2
:1042000048D940F200480AEB0702C4F6000882428F
:1042100088BFA0EB070AA019DDF82890884288BF64
:104220008C1B404640210022FEF778F80AEB07007D
:10423000A11901380139C2B2CBB2F8B2F1B200F023
:104240007BF899FA99F0ADF8060040464FF400511A
:104250000122FEF763F8200418BF5FEA0A4014D079
:1042600040F2A816C2F200060DF10607554600BF3F
:104270003046394602224FF0FF33FEF729FD013D5B
:104280002804F5D1013C2004F0D140464021012210
:10429000FEF744F802B0BDE8F087000080B582B0B8
:1042A00040F2FC01C2F200010B7889788022002BD9
:1042B000844618BFA022A02300294FF000004FF031
:1042C000000118BF8023CDF800C0FFF781FF02B0C6
:1042D00080BD000010B540F20044C4F60004204642
:1042E00040210022FEF71AF820464FF480510022A8
:1042F000FEF714F81420FDF717FF20464FF4805105
:104300000122FEF70BF846F2C450C0F60000FFF79A
:1043100015FF46F2FF50C0F60000FFF70FFF46F210
:104320000C60C0F60000FFF709FF20464021012283
:10433000BDE81040FDF7F2BF2DE9F04F83B040F229
:10434000004A07462A20C4F6000A164689468DF818
:10435000090050464FF40051002200934FF000082E
:10436000FDF7DCFF40F2A815C2F200050DF10901CE
:10437000284601224FF0FF330124FEF7A9FC40F24A
:10438000FC0BC2F2000B9BF8040002218DF80580A3
:10439000002818BF0121C8198DF8060088198DF86A
:1043A000080050464FF4005101228DF80780FDF7B8
:1043B000B5FF0DF105062846314604224FF0FF33C4
:1043C000FEF786FC2B208DF80A0050464FF4005172
:1043D0000022FDF7A3FF0DF10A01284601224FF04C
:1043E000FF33FEF775FC9BF805004FF400510028E1
:1043F00018BF022404EB09008DF806000098012282
:1044000020448DF808005046FDF788FF28463146C5
:1044100004224FF0FF33FEF75BFC2C208DF80B00DD
:1044200050464FF400510022FDF778FF0DF10B01CB
:10443000284601224FF0FF33FEF74AFC03B0BDE8E7
:10444000F08F00007047000070B52DED028B8CB02E
:1044500040F27806C2F20006B06801F009FC04469A
:10446000F0680D4601F004FC41EC180B306901F0D6
:10447000FFFB41EC100B04AE0FA1304622462B4649
:104480008DED008B8DED020BFBF7A8FF40F20C24A5
:10449000C2F200042046314620224FF0FF33FFF7DE
:1044A00089FA2046314620224FF0FF33FFF782FA87
:1044B0000CB0BDEC028B70BD25302E3366203B2046
:1044C00025302E3366203B2025302E3366200D0A02
:1044D0000000000080B5FDF72DFFBDE88040FFF72C
:1044E000AFBB00004EF68850CEF20000016841F4E8
:1044F0007001016070470000416ACA070ED18A0747
:1045000017D44A0720D40A0729D4CA0632D48A0607
:104510003BD480B54A0644D458E000BF0268D0F8C6
:1045200028C0536823F4003343EA0C0353608A071E
:10453000E7D50268D0F82CC0536823F4803343EAEF
:104540000C0353604A07DED50268D0F830C05368C8
:1045500023F4802343EA0C0353600A07D5D502688D
:10456000D0F834C0536823F4004343EA0C0353608B
:10457000CA06CCD50268D0F838C0936823F48053BB
:1045800043EA0C0393608A06C3D50268D0F83CC0A6
:10459000936823F4005343EA0C03936080B54A0602
:1045A00014D50268D0F840C05368BCF5801F23F4CE
:1045B000801343EA0C03536008D1D2F804C0D0F84A
:1045C00044E02CF4C00343EA0E035360090658BFCD
:1045D00080BD0168806C4A6822F400221043486064
:1045E00080BD0000B0B582B004460020C4F884004D
:1045F000FDF79AFE216805460A68120735D56FF067
:104600007E4C20464FF4001100222B46CDF800C00E
:1046100000F052F940B300BF206850E8000F216855
:1046200020F0800041E80002DAB1206850E8000F75
:10463000216820F0800041E8000292B1206850E833
:10464000000F216820F0800041E800024AB1206894
:1046500050E8000F216820F0800041E80002002AA5
:10466000DAD12020E0675FE021680868400761D563
:104670006FF07E4C20464FF4800100222B46CDF88F
:1046800000C000F019F9002854D000BF206850E89D
:10469000000F216820F4907041E80002E2B1206828
:1046A00050E8000F216820F4907041E800029AB1B0
:1046B000206850E8000F216820F4907041E8000263
:1046C00052B1206850E8000F216820F4907041E852
:1046D0000002002ADAD100BF206850E8020F2168EA
:1046E00020F0010041E80202DAB1206850E8020F30
:1046F000216820F0010041E8020292B1206850E8F0
:10470000020F216820F0010041E802024AB120684E
:1047100050E8020F216820F0010041E80202002A5F
:10472000DAD12020C4F880000320002184F878101A
:1047300002B0B0BD2020E067C4F8800000202066F1
:104740006066002184F8781002B0B0BD406A002194
:10475000A0F85A10A0F85210FEF7D0BD10B50446CC
:1047600001688068D4E903C3626918430243D4F83E
:104770001CE00B6846F6F310CEF6FF7018401043AD
:1047800040EA0E000860486820F4405040EA0C00FF
:104790004860A069226A8B68104323F4306210439A
:1047A000886044F20040C4F2000081424FF00002F1
:1047B00015D044F60000C4F2000081420FD043F649
:1047C0000000C4F20100814220D141F23000C4F265
:1047D0000200006834A100F0030051F8202041F2EB
:1047E0000020BEF5004FC0F27A0017D1082A4FF022
:1047F000010154D8DFE802F00653285322535353E3
:10480000260000BFFDF7ACFFF0B944E0102241F2F2
:104810000020BEF5004FC0F27A00E7D0082A4FF022
:1048200001013CD8DFE802F0063B2A3B243B3B3B3E
:10483000280000BFFDF794FF00BB2CE0FDF7A4FFAC
:1048400010B928E04FF4004061684A0802EB4000CC
:10485000B0FBF1F04FF6EF72A0F1100191421DD8BC
:104860004FF6F0710140C0F34200084411E000BF70
:10487000FDF78AFF10B90EE04FF4004061684FF673
:10488000EF7200EB5100B0FBF1F0A0F1100191428A
:1048900004D82168C860002101E000BF0121002286
:1048A0000846A266E26610BD000000000400000099
:1048B00008000000020000002DE9F04104460068F5
:1048C0001546C2690E461140891BB1FA81F14909AA
:1048D000A94227D1DDF81880B8F1000F26D018F1D1
:1048E000010129D1C1693140891BB1FA81F149091E
:1048F000A94217D1C1693140891BB1FA81F1490937
:10490000A9420FD1C1693140891BB1FA81F149092E
:10491000A94207D1C1693140891BB1FA81F1490926
:10492000A942DFD00020BDE8F08100BFFDF7FCFC0C
:104930000320BDE8F08100BF1F4607E0C06930409A
:10494000801BB0FA80F04009A842EBD1FDF7ECFCE7
:10495000C01B404500F28E80206801684907EDD5F4
:10496000C169090700F18A80C1690905E6D54FF4DC
:1049700000610162206850E8000F216820F4907007
:1049800041E80002BAB3206850E8000F216820F423
:10499000907041E8000272B3206850E8000F21686F
:1049A00020F4907041E800022AB3206850E8000F1C
:1049B000216820F4907041E80002002ADAD11AE060
:1049C000206850E8020F216820F0010041E802024F
:1049D000DAB1206850E8020F216820F0010041E8B8
:1049E000020292B1206850E8020F216820F0010015
:1049F00041E802024AB1206850E8020F216820F025
:104A0000010041E80202002ADAD1206E012824D1F7
:104A1000206850E8000F216820F0100041E80002F3
:104A2000DAB1206850E8000F216820F0100041E85A
:104A3000000292B1206850E8000F216820F01000B9
:104A400041E800024AB1206850E8000F216820F0D8
:104A5000100041E80002002ADAD120200021C4F829
:104A600080002166A166C4F88400032084F87810D1
:104A7000BDE8F0810320BDE8F08100BF082101629C
:104A8000206850E8000F216820F4907041E800028F
:104A9000BAB3206850E8000F216820F4907041E814
:104AA000000272B3206850E8000F216820F4907073
:104AB00041E800022AB3206850E8000F216820F482
:104AC000907041E80002002ADAD11AE0206850E82C
:104AD000020F216820F0010041E80202DAB12068EB
:104AE00050E8020F216820F0010041E8020292B173
:104AF000206850E8020F216820F0010041E802021E
:104B00004AB1206850E8020F216820F0010041E816
:104B10000202002ADAD1206E012824D1206850E850
:104B2000000F216820F0100041E80002DAB120688F
:104B300050E8000F216820F0100041E8000292B117
:104B4000206850E8000F216820F0100041E80002C2
:104B50004AB1206850E8000F216820F0100041E8B9
:104B60000002002ADAD12020C4F8800000200821A9
:104B70002066A066C4F8841084F878000120BDE89F
:104B8000F081000040F20C20C2F20000FEF7B8BB3A
:104B9000FEE7000096B0FDF7DBFB00240120CDE925
:104BA0001144CDE90F441090102011904FF40020D3
:104BB000022515900CA8CDE90D440694CDE90444D6
:104BC000CDE902440C95CDE91354FDF709FE28B157
:104BD000EFF3108072B600BFFEE700BF0F20CDE9F3
:104BE000070507A80021CDE909440B94FDF7E6FC71
:104BF00020B1EFF3108072B6FEE700BF8120019074
:104C00004FF488700027059001A80397FDF740FC3A
:104C100020B1EFF3108072B6FEE700BF41F214003E
:104C20001097C4F20200016840F2004841F40021EC
:104C300001600168C4F6000801F4002101910199A6
:104C4000016808F5806541F4800101600168002277
:104C500001F480010191019901684FF4005441F47D
:104C600000310160016801F400310191019901688E
:104C700041F48021016000684FF4005100F480206D
:104C8000019001982846FDF749FB404644F2500147
:104C9000002244F25009FDF741FB4FF090404FF4E1
:104CA000004100224FF4004AFDF738FB0CAE0C9493
:104CB000012428463146CDE90D470F97FDF748FA04
:104CC00040463146CDE90C94CDE90E77FDF740FA28
:104CD0004FF090403146CDE90CA4CDE90E77FDF7B9
:104CE00037FA40F20810C2F200004FF0A04104224F
:104CF0000397CDE90177CDE91077CDE90E77CDE9BE
:104D00000C77477680F82070C0E90A47C46180F8C4
:104D10003070C0E90017C0E90277C0E90472077675
:104D20004763FCF713FF28B1EFF3108072B600BFA2
:104D3000FEE700BF40F208100024C2F2000001A903
:104D40000194FCF7AFFC28B1EFF3108072B600BFFE
:104D5000FEE700BF03200C9040F208100125C2F2CC
:104D600000000CA9CDE90D54CDE90F441194FCF7D6
:104D700011FD28B1EFF3108072B600BFFEE700BF4F
:104D800040F2581040F20011C2F20000C5F20001DA
:104D90000024042280F82040C0E90A54C56180F84C
:104DA0003040C0E90014C0E90244C0E90442048371
:104DB0004463FCF7CBFE28B1EFF3108072B600BF5E
:104DC000FEE700BF0120CDE90C0040F25810C2F20E
:104DD00000000CA9CDE90E44CDE91044FCF7DAFC43
:104DE00020B1EFF3108072B6FEE700BF40F200453D
:104DF000C4F2000540F2A81005F59631C2F2000099
:104E00004FF4827200244FF440734FF4007780E82F
:104E1000160007210822C0E90334C0E90547C46130
:104E2000C0E90844C0E90A41C0E90C42FDF7ACFE04
:104E300020B1EFF3108072B6FEE700BF40F27806B3
:104E4000C2F20006304640F8285F4FF6FF71029428
:104E5000C0E90144C0E903148461FEF78BF928B16D
:104E6000EFF3108072B600BFFEE700BF06F1280422
:104E7000002701A9204601970397FEF773F818B1A0
:104E8000EFF3108072B6FEE70120CDE90D070CA903
:104E9000204608220C970F97FEF7A8F820B1EFF3F1
:104EA000108072B6FEE700BF40F20C2005F59A3183
:104EB000C2F2000000230C274FF4E13280E80E001C
:104EC000C0E90333C0E90573C0E907334362FEF765
:104ED00005FD18B1EFF3108072B6FEE7FFF7FAF99F
:104EE000FEF7F6FF0020FFF7D9F9FEF79DFE41F22D
:104EF0002930C0F60000002142F21072FEF7C4FD16
:104F000044F24940C0F6000040F6B83142F2107257
:104F1000FEF7BAFD41F20510C0F6000041F27071D3
:104F200042F21072FEF7B0FDFEF720FEFCE75FEAEA
:104F3000400C08BF91F0000F4FEA8C234FEAC122CA
:104F400043EA51514FEA1C5018BF00F5F0404FEAB8
:104F5000300018BF41F000415FEA6C5C00F029802E
:104F6000BCF1FF3F08BF40F080407047130C06BF04
:104F700012044FF0100C4FF0000C130E04BF12027D
:104F80000CF1080C130F04BF12010CF1040C930F69
:104F900004BF92000CF1020CD30F04BF52000CF1BD
:104FA000010C11464FF00002A0F11F00A0EB0C0015
:104FB000704711F0004F08BF704731F000413FF4D7
:104FC000D5AF0B0C06BF09044FF0100C4FF0000CCE
:104FD0000B0E04BF09020CF1080C0B0F04BF0901F2
:104FE0000CF1040C8B0F04BF89000CF1020CCB0FE9
:104FF00004BF49000CF1010CCCF1200322FA03F3A9
:1050000041EA030102FA0CF2A0EB0C0000F10100EE
:105010007047000023F07F4720F07F4C80EA0300B8
:1050200000F00040ACEB070303F57C5303F1FF03F2
:105030002DE9804909B44FEA144324EA03484FEAB2
:10504000154B25EA0B4E0FF2042606EB13273E788C
:1050500003FB0667C7F5000707FB06F64FEAD646CF
:1050600006F102064FEA543707FB066CCCF1005CF0
:105070004FEA1C472CEA074C0CFB06F507FB06F42D
:1050800004EB15464FEA961649085FEA320234BF30
:1050900000204FF000404FEAD13706FB07FC4FEAF3
:1050A0001C4C0CFB0BF7D21B03FB0CF761EB07014D
:1050B0000CFB0EF7B0EB074072EB17420CFB08F746
:1050C00034BFA2EB0742B2EB074261EB17414FEA54
:1050D0000C444FEA910706FB07FC4FEA1C4C0CFB03
:1050E0000BF7B0EBC74072EB573203FB0CF734BF42
:1050F000A2EBC742B2EBC74261EB57310CFB0EF794
:10510000B0EBC70072EB57720CFB08F734BFA2EB91
:10511000C702B2EBC70261EB57714FEA816141EA06
:1051200092114FEA826242EA90124FEA806004EBE9
:10513000CC04039F4FEAD13706FB07FC4FEA1C4C17
:105140000CFB0BF7D21B03FB0CF761EB07010CFB0D
:105150000EF7B0EB074072EB17420CFB08F734BFB9
:10516000A2EB0742B2EB074261EB17414FEA8C55C5
:1051700004EB9C244FEA910706FB07FC4FEA1C4C0A
:105180000CFB0BF7B0EBC74072EB573203FB0CF78D
:1051900034BFA2EBC742B2EBC74261EB57310CFB05
:1051A0000EF7B0EBC70072EB57720CFB08F734BF79
:1051B000A2EBC702B2EBC70261EB57714FEA816104
:1051C00041EA92114FEA826242EA90124FEA80600D
:1051D00015EB4C2544F100044FEAD13706FB07FCE0
:1051E0004FEA1C4C0CFB0BF7D21B03FB0CF761EBDB
:1051F00007010CFB0EF7B0EB074072EB17420CFBFC
:1052000008F734BFA2EB0742B2EB074261EB17414C
:105210004FEA813141EA92414FEA823242EA9042BA
:105220004FEA80304FEA0C7615EB1C1544F1000470
:1052300048EA03434EEA0B484FF0000EB2EB080C6D
:1052400071EB030724BF624639464EEB0E0E4FF05A
:10525000000B0018524149414BEB0B0BB2EB080C11
:1052600071EB03077BF1000B24BF624639464EEB1E
:105270000E0E4FF0000B0018524149414BEB0B0B47
:10528000B2EB080C71EB03077BF1000B24BF624605
:1052900039464EEB0E0E51EA020718BF46F00106E2
:1052A00016EB0E7655F1000254F1000103D5BDE86E
:1052B0008901BDE80088BDE88901BDE80048B6194C
:1052C000524141EB0101A3F10103704780807F7ED1
:1052D0007D7C7B7A7978777676757473727171706C
:1052E0006F6E6E6D6C6C6B6A6A696868676666651E
:1052F0006464636362616160605F5F5E5E5D5D5CAC
:105300005C5B5B5A5A59595858575756565555551C
:105310005454535352525251515050504F4F4F4E7C
:105320004E4D4D4D4C4C4C4B4B4B4A4A4A494949CA
:10533000484848474747474646464545454444440C
:105340004443434343424242424141419C46002B35
:1053500030D477002BD04FEA37071CB503B44FF099
:1053600010004FF01001BAF1000F06D0BCF1000F91
:10537000DCBF40F0080040F008014FF000000FBC17
:10538000BDE810400BF1010BBBF1010F08BF5FEA54
:10539000170722BF12F1010211F101014FF0004184
:1053A00043F1000300F0004043EA00007047F9D3E6
:1053B0005708D0E746EA06464FEA164613F1400F73
:1053C0001FDD13F1200FDFBF16430A4600212033F3
:1053D0005B42BED0C3F1200746EA06464FEA1646B6
:1053E00002FA07F746EA070622FA03F2C3F120079A
:1053F00001FA07F742EA070221FA03F14FF000032E
:10540000A7E746EA020646EA06464FEA164646EA95
:105410000106BCBF46EA0646360C4FF000034FF0CB
:1054200000024FF0000194E72DE9804C70B49A46D9
:10543000934691E8380007C831EA400C48BF34EA87
:10544000430C03D5FFF7E6FDFFF780FFF0BCBDE896
:10545000008C2DE9804C70B49A46934691E8380050
:1054600007C810F0804F08BF13F0804F03D100F041
:1054700005F8FFF76BFFF0BCBDE8008C20F07F471C
:1054800023F07F4C80EA030000F0004007EB0C03A0
:10549000A3F57C53A3F1FE0392F0000F00F0B3805C
:1054A00095F0000F00F077802DE901494FEA114097
:1054B00021EA00484FEA144624EA064700FB06FCAE
:1054C00008FB06F607FB08F818EB06484CEB164CF1
:1054D00000FB07F718EB07484CEB17404FEA124B5D
:1054E00022EA0B4E4FEA154625EA06470BFB06FC5F
:1054F0000EFB06F607FB0EFE1EEB064E4CEB164CA3
:105500000BFB07F71EEB074E4CEB174B18EB0B088A
:1055100040F1000018EB0E0B58EB000840F10000C2
:105520008F1A4FF000014FF000063CBFC943661BC5
:1055300014BFB5EB040C00213CBFC943F61B4FEA76
:10554000174427EA04454FEA1C472CEA074C04FBA2
:10555000076205FB07F70CFB05F616EB074642EB67
:10556000174204FB0CFC16EB0C4642EB1C421BEBF7
:10557000060658EB020241414EEA8E0E46EA9E06AE
:1055800001D5BDE80189B619524141EB0101A3F1F2
:105590000103BDE801894FEA144524EA05464FEAB4
:1055A000114721EA074C05FB07F406FB07F70CFB44
:1055B00006F111EB074144EB174405FB0CFC11EB22
:1055C0000C4144EB1C444FEA124722EA074C05FB0E
:1055D00007F206FB07F70CFB06F616EB074642EB55
:1055E000174205FB0CFC16EB0C4642EB1C456A18F7
:1055F00054F1000148BF7047B619524141EB010117
:10560000A3F10103704795F0000F37D04FEA114224
:1056100021EA02464FEA144724EA074C02FB07F14D
:1056200006FB07F70CFB06F414EB074441EB1741AC
:1056300002FB0CFC14EB0C4441EB1C414FEA1547F8
:1056400025EA074C02FB07F506FB07F70CFB06F6FD
:1056500016EB074645EB174502FB0CFC16EB0C4618
:1056600045EB1C42121951F1000148BF7047B619B1
:10567000524141EB0101A3F1010370474FEA144588
:1056800024EA05464FEA114721EA074C05FB07F1DA
:1056900006FB07F70CFB06F212EB074241EB174142
:1056A00005FB0CFC12EB0C4251EB1C414FF00006C9
:1056B00048BF7047921841EB0101A3F10103704705
:1056C00003B401984100009850EAC12018BF04209B
:1056D0004A0D18BF40F0010040F2FF72B2EB515F7B
:1056E00008BF40F00200012808BF052002B0704743
:1056F00030380A2801D2012070470020704700008E
:1057000010B500290AD00878002807D00548784449
:10571000FBF722FC002801D0002010BD024878448D
:1057200010BD00004A0F0000420F000021F00042AF
:1057300001F00043A2F16052B2F5801F28BFD2F100
:105740007F6C0BD95FEA001C43EAC20242EB507047
:1057500018BF704728BF20F001007047B2F5801FC6
:10576000BCBF184670474FEA410C1CF5001F02D21F
:10577000084600F0FBBA70B500F026FA0000008978
:10578000FFF7F6BF4FF00040A0F580007047000023
:105790002DE9C04130B4DFF8A4C23CEA111418BFAF
:1057A0003CEA131400F0ED801CEA111481EA0305B1
:1057B00044EAD57418BF1CEA131500F0C880A4EBA6
:1057C000050404F17F7404F500344FF0004545EA08
:1057D000C12145EAC32341EA505143EA52534FEAFB
:1057E000C0204FEAC222994208BF904200F09D803B
:1057F0004FEA13650FF24416765D4FEA134506FB38
:1058000005F7C7F1807706FB07F74FEAD737A7FB05
:1058100003687642A7FB06CEC8F5803838BFA8F1EA
:10582000010807FB08E6A6FB028C4FF0000EE6FB22
:1058300003CEDCF1000CCEF1004E38BFAEF1010E0C
:10584000A6FB0C584FF00007E6FB0E87A1FB08C62D
:10585000A0FB07CE16EB0E064FF0000545F1000544
:10586000E1FB076515F1E04E7EBFA4F580345FEAE9
:1058700046066D4116F1800745F100054FEA1727EE
:1058800047EA05674FEA15254FEA0666A6F1DE46A8
:10589000B6F1805F20D9384605EBC47124F0010CC5
:1058A00001EB0C11BCF1FE6F02D8F0BCBDE8008129
:1058B00024425CBF01F5801E9EEAC47F02D4F0BC86
:1058C000BDE80081244200F13980A1F1C041F0BC63
:1058D000BDE8004100F0C6B94FEAD02040EA41508F
:1058E0004FEAD1214FEAD22242EA43524FEAD32370
:1058F000A7FB028607FB036605FB02661EEA0E0F86
:1059000058BFA6EB0056B6EB00564FEA520E4EEAD1
:10591000C37E18EB0E0E56EB530EBCD518EB0208E7
:105920005E417F1C55F10005B5E74FF480154FF03F
:1059300000074FF000064FF00008ACE701F1C0414E
:1059400001F000414FF00000F0BCBDE800810CEA1E
:10595000131511EA0C1F00D00CE013EA0C1F00F025
:1059600026804FF0000081EA030101F00041F0BC05
:10597000BDE80081F0BCBDE8004181EA030100F010
:1059800071B9F0BCBDE8004170B500F01DF900BF71
:10599000097EFC3E00F007B84FF0000081EA0301E9
:1059A00001F00041704781EA030100F05BB9F0BCEF
:1059B000BDE8004122494FF000007047FFFDFBF9B0
:1059C000F7F5F4F2F0EEEDEBE9E8E6E4E3E1E0DE32
:1059D000DDDBDAD8D7D5D4D3D1D0CFCDCCCBCAC8A4
:1059E000C7C6C5C4C2C1C0BFBEBDBCBBBAB9B8B7CB
:1059F000B6B5B4B3B2B1B0AFAEADACABAAA9A8A8BE
:105A0000A7A6A5A4A3A3A2A1A09F9F9E9D9C9C9B8B
:105A10009A99999897979695959493939291919036
:105A20008F8F8E8E8D8C8C8B8B8A898988888787C7
:105A30008685858484838382828181800000FF073C
:105A40000000F87F10F0004248BF4042B0FA80F3F7
:105A500010FA03F10AD0C3F11D0303F5806302EBD2
:105A600003524FEA415002EBD12170474FF0000042
:105A70007047000070B5DFF848C11CEA111E1EBF58
:105A80001CEA13159EEA0C0F95EA0C0F00F06F80CC
:105A900081EA03044EEAD47EAE4421EA4C1123EAA3
:105AA0004C1341F4801143F48013AEF17F7EA1FBCF
:105AB000024CA0FB0365361955EB0C05A1FB034C0A
:105AC0004CF10003A0FB021C16EB0C06654153F1E0
:105AD0000003094218BF46F0010613F4007F0BD102
